{
  "contractName": "Token",
  "abi": [
    {
      "inputs": [
        {
          "internalType": "string",
          "name": "_tokenName",
          "type": "string"
        },
        {
          "internalType": "string",
          "name": "_tokenSymbol",
          "type": "string"
        },
        {
          "internalType": "uint256",
          "name": "_initialSupply",
          "type": "uint256"
        }
      ],
      "stateMutability": "nonpayable",
      "type": "constructor"
    },
    {
      "anonymous": false,
      "inputs": [
        {
          "indexed": true,
          "internalType": "address",
          "name": "sender",
          "type": "address"
        },
        {
          "indexed": true,
          "internalType": "address",
          "name": "spender",
          "type": "address"
        },
        {
          "indexed": false,
          "internalType": "uint256",
          "name": "value",
          "type": "uint256"
        }
      ],
      "name": "Approval",
      "type": "event"
    },
    {
      "anonymous": false,
      "inputs": [
        {
          "indexed": true,
          "internalType": "address",
          "name": "from",
          "type": "address"
        },
        {
          "indexed": true,
          "internalType": "address",
          "name": "to",
          "type": "address"
        },
        {
          "indexed": false,
          "internalType": "uint256",
          "name": "value",
          "type": "uint256"
        }
      ],
      "name": "Transfer",
      "type": "event"
    },
    {
      "inputs": [
        {
          "internalType": "address",
          "name": "",
          "type": "address"
        },
        {
          "internalType": "address",
          "name": "",
          "type": "address"
        }
      ],
      "name": "allowed",
      "outputs": [
        {
          "internalType": "uint256",
          "name": "",
          "type": "uint256"
        }
      ],
      "stateMutability": "view",
      "type": "function",
      "constant": true
    },
    {
      "inputs": [
        {
          "internalType": "address",
          "name": "",
          "type": "address"
        }
      ],
      "name": "balances",
      "outputs": [
        {
          "internalType": "uint256",
          "name": "",
          "type": "uint256"
        }
      ],
      "stateMutability": "view",
      "type": "function",
      "constant": true
    },
    {
      "inputs": [],
      "name": "compaignName",
      "outputs": [
        {
          "internalType": "string",
          "name": "",
          "type": "string"
        }
      ],
      "stateMutability": "view",
      "type": "function",
      "constant": true
    },
    {
      "inputs": [],
      "name": "tokenName",
      "outputs": [
        {
          "internalType": "string",
          "name": "",
          "type": "string"
        }
      ],
      "stateMutability": "view",
      "type": "function",
      "constant": true
    },
    {
      "inputs": [],
      "name": "tokenSymbol",
      "outputs": [
        {
          "internalType": "string",
          "name": "",
          "type": "string"
        }
      ],
      "stateMutability": "view",
      "type": "function",
      "constant": true
    },
    {
      "inputs": [],
      "name": "version",
      "outputs": [
        {
          "internalType": "string",
          "name": "",
          "type": "string"
        }
      ],
      "stateMutability": "view",
      "type": "function",
      "constant": true
    },
    {
      "inputs": [
        {
          "internalType": "address",
          "name": "_to",
          "type": "address"
        },
        {
          "internalType": "uint256",
          "name": "_value",
          "type": "uint256"
        }
      ],
      "name": "transfer",
      "outputs": [
        {
          "internalType": "bool",
          "name": "success",
          "type": "bool"
        }
      ],
      "stateMutability": "nonpayable",
      "type": "function"
    },
    {
      "inputs": [
        {
          "internalType": "address",
          "name": "_owner",
          "type": "address"
        }
      ],
      "name": "balanceOf",
      "outputs": [
        {
          "internalType": "uint256",
          "name": "balance",
          "type": "uint256"
        }
      ],
      "stateMutability": "view",
      "type": "function",
      "constant": true
    },
    {
      "inputs": [
        {
          "internalType": "address",
          "name": "_owner",
          "type": "address"
        }
      ],
      "name": "getBalance",
      "outputs": [
        {
          "internalType": "uint256",
          "name": "balance",
          "type": "uint256"
        }
      ],
      "stateMutability": "view",
      "type": "function",
      "constant": true
    },
    {
      "inputs": [],
      "name": "myBalance",
      "outputs": [
        {
          "internalType": "uint256",
          "name": "balance",
          "type": "uint256"
        }
      ],
      "stateMutability": "view",
      "type": "function",
      "constant": true
    },
    {
      "inputs": [],
      "name": "destroy",
      "outputs": [],
      "stateMutability": "payable",
      "type": "function",
      "payable": true
    }
  ],
  "bytecode": "0x60806040526040518060400160405280600381526020017f312e300000000000000000000000000000000000000000000000000000000000815250600690805190602001906200005192919062000170565b506002600760006101000a81548160ff021916908360ff1602179055503480156200007b57600080fd5b50604051620012f6380380620012f68339818101604052810190620000a19190620003f8565b8260039080519060200190620000b992919062000170565b508160049080519060200190620000d292919062000170565b50600154600860003373ffffffffffffffffffffffffffffffffffffffff1673ffffffffffffffffffffffffffffffffffffffff16815260200190815260200160002081905550336000806101000a81548173ffffffffffffffffffffffffffffffffffffffff021916908373ffffffffffffffffffffffffffffffffffffffff1602179055508060018190555080600281905550505050620004f7565b8280546200017e90620004c1565b90600052602060002090601f016020900481019282620001a25760008555620001ee565b82601f10620001bd57805160ff1916838001178555620001ee565b82800160010185558215620001ee579182015b82811115620001ed578251825591602001919060010190620001d0565b5b509050620001fd919062000201565b5090565b5b808211156200021c57600081600090555060010162000202565b5090565b6000604051905090565b600080fd5b600080fd5b600080fd5b600080fd5b6000601f19601f8301169050919050565b7f4e487b7100000000000000000000000000000000000000000000000000000000600052604160045260246000fd5b62000289826200023e565b810181811067ffffffffffffffff82111715620002ab57620002aa6200024f565b5b80604052505050565b6000620002c062000220565b9050620002ce82826200027e565b919050565b600067ffffffffffffffff821115620002f157620002f06200024f565b5b620002fc826200023e565b9050602081019050919050565b60005b83811015620003295780820151818401526020810190506200030c565b8381111562000339576000848401525b50505050565b6000620003566200035084620002d3565b620002b4565b90508281526020810184848401111562000375576200037462000239565b5b6200038284828562000309565b509392505050565b600082601f830112620003a257620003a162000234565b5b8151620003b48482602086016200033f565b91505092915050565b6000819050919050565b620003d281620003bd565b8114620003de57600080fd5b50565b600081519050620003f281620003c7565b92915050565b6000806000606084860312156200041457620004136200022a565b5b600084015167ffffffffffffffff8111156200043557620004346200022f565b5b62000443868287016200038a565b935050602084015167ffffffffffffffff8111156200046757620004666200022f565b5b62000475868287016200038a565b92505060406200048886828701620003e1565b9150509250925092565b7f4e487b7100000000000000000000000000000000000000000000000000000000600052602260045260246000fd5b60006002820490506001821680620004da57607f821691505b60208210811415620004f157620004f062000492565b5b50919050565b610def80620005076000396000f3fe60806040526004361061009c5760003560e01c806370a082311161006457806370a082311461019c5780637b61c320146101d957806383197ef014610204578063a9059cbb1461020e578063c9116b691461024b578063f8b2cb4f146102765761009c565b80630dae216d146100a157806327e235e3146100cc57806354fd4d50146101095780635c658165146101345780636c02a93114610171575b600080fd5b3480156100ad57600080fd5b506100b66102b3565b6040516100c39190610a45565b60405180910390f35b3480156100d857600080fd5b506100f360048036038101906100ee9190610aca565b610341565b6040516101009190610b10565b60405180910390f35b34801561011557600080fd5b5061011e610359565b60405161012b9190610a45565b60405180910390f35b34801561014057600080fd5b5061015b60048036038101906101569190610b2b565b6103e7565b6040516101689190610b10565b60405180910390f35b34801561017d57600080fd5b5061018661040c565b6040516101939190610a45565b60405180910390f35b3480156101a857600080fd5b506101c360048036038101906101be9190610aca565b61049a565b6040516101d09190610b10565b60405180910390f35b3480156101e557600080fd5b506101ee6105cf565b6040516101fb9190610a45565b60405180910390f35b61020c61065d565b005b34801561021a57600080fd5b5061023560048036038101906102309190610b97565b610724565b6040516102429190610bf2565b60405180910390f35b34801561025757600080fd5b5061026061091c565b60405161026d9190610b10565b60405180910390f35b34801561028257600080fd5b5061029d60048036038101906102989190610aca565b610963565b6040516102aa9190610b10565b60405180910390f35b600580546102c090610c3c565b80601f01602080910402602001604051908101604052809291908181526020018280546102ec90610c3c565b80156103395780601f1061030e57610100808354040283529160200191610339565b820191906000526020600020905b81548152906001019060200180831161031c57829003601f168201915b505050505081565b60086020528060005260406000206000915090505481565b6006805461036690610c3c565b80601f016020809104026020016040519081016040528092919081815260200182805461039290610c3c565b80156103df5780601f106103b4576101008083540402835291602001916103df565b820191906000526020600020905b8154815290600101906020018083116103c257829003601f168201915b505050505081565b6009602052816000526040600020602052806000526040600020600091509150505481565b6003805461041990610c3c565b80601f016020809104026020016040519081016040528092919081815260200182805461044590610c3c565b80156104925780601f1061046757610100808354040283529160200191610492565b820191906000526020600020905b81548152906001019060200180831161047557829003601f168201915b505050505081565b60008060009054906101000a900473ffffffffffffffffffffffffffffffffffffffff1673ffffffffffffffffffffffffffffffffffffffff163373ffffffffffffffffffffffffffffffffffffffff161461052b576040517f08c379a000000000000000000000000000000000000000000000000000000000815260040161052290610ce0565b60405180910390fd5b60008054906101000a900473ffffffffffffffffffffffffffffffffffffffff1673ffffffffffffffffffffffffffffffffffffffff163373ffffffffffffffffffffffffffffffffffffffff161461058757600090506105ca565b600860008373ffffffffffffffffffffffffffffffffffffffff1673ffffffffffffffffffffffffffffffffffffffff1681526020019081526020016000205490505b919050565b600480546105dc90610c3c565b80601f016020809104026020016040519081016040528092919081815260200182805461060890610c3c565b80156106555780601f1061062a57610100808354040283529160200191610655565b820191906000526020600020905b81548152906001019060200180831161063857829003601f168201915b505050505081565b60008054906101000a900473ffffffffffffffffffffffffffffffffffffffff1673ffffffffffffffffffffffffffffffffffffffff163373ffffffffffffffffffffffffffffffffffffffff16146106eb576040517f08c379a00000000000000000000000000000000000000000000000000000000081526004016106e290610ce0565b60405180910390fd5b60008054906101000a900473ffffffffffffffffffffffffffffffffffffffff1673ffffffffffffffffffffffffffffffffffffffff16ff5b60008060009054906101000a900473ffffffffffffffffffffffffffffffffffffffff1673ffffffffffffffffffffffffffffffffffffffff163373ffffffffffffffffffffffffffffffffffffffff16146107b5576040517f08c379a00000000000000000000000000000000000000000000000000000000081526004016107ac90610ce0565b60405180910390fd5b81600860003373ffffffffffffffffffffffffffffffffffffffff1673ffffffffffffffffffffffffffffffffffffffff16815260200190815260200160002054101561080157600080fd5b81600860003373ffffffffffffffffffffffffffffffffffffffff1673ffffffffffffffffffffffffffffffffffffffff16815260200190815260200160002060008282546108509190610d2f565b9250508190555081600860008573ffffffffffffffffffffffffffffffffffffffff1673ffffffffffffffffffffffffffffffffffffffff16815260200190815260200160002060008282546108a69190610d63565b925050819055508273ffffffffffffffffffffffffffffffffffffffff163373ffffffffffffffffffffffffffffffffffffffff167fddf252ad1be2c89b69c2b068fc378daa952ba7f163c4a11628f55a4df523b3ef8460405161090a9190610b10565b60405180910390a36001905092915050565b6000600860003373ffffffffffffffffffffffffffffffffffffffff1673ffffffffffffffffffffffffffffffffffffffff16815260200190815260200160002054905090565b6000600860008373ffffffffffffffffffffffffffffffffffffffff1673ffffffffffffffffffffffffffffffffffffffff168152602001908152602001600020549050919050565b600081519050919050565b600082825260208201905092915050565b60005b838110156109e65780820151818401526020810190506109cb565b838111156109f5576000848401525b50505050565b6000601f19601f8301169050919050565b6000610a17826109ac565b610a2181856109b7565b9350610a318185602086016109c8565b610a3a816109fb565b840191505092915050565b60006020820190508181036000830152610a5f8184610a0c565b905092915050565b600080fd5b600073ffffffffffffffffffffffffffffffffffffffff82169050919050565b6000610a9782610a6c565b9050919050565b610aa781610a8c565b8114610ab257600080fd5b50565b600081359050610ac481610a9e565b92915050565b600060208284031215610ae057610adf610a67565b5b6000610aee84828501610ab5565b91505092915050565b6000819050919050565b610b0a81610af7565b82525050565b6000602082019050610b256000830184610b01565b92915050565b60008060408385031215610b4257610b41610a67565b5b6000610b5085828601610ab5565b9250506020610b6185828601610ab5565b9150509250929050565b610b7481610af7565b8114610b7f57600080fd5b50565b600081359050610b9181610b6b565b92915050565b60008060408385031215610bae57610bad610a67565b5b6000610bbc85828601610ab5565b9250506020610bcd85828601610b82565b9150509250929050565b60008115159050919050565b610bec81610bd7565b82525050565b6000602082019050610c076000830184610be3565b92915050565b7f4e487b7100000000000000000000000000000000000000000000000000000000600052602260045260246000fd5b60006002820490506001821680610c5457607f821691505b60208210811415610c6857610c67610c0d565b5b50919050565b7f4f6e6c79206f776e65722063616e2063616c6c20746869732066756e6374696f60008201527f6e2e000000000000000000000000000000000000000000000000000000000000602082015250565b6000610cca6022836109b7565b9150610cd582610c6e565b604082019050919050565b60006020820190508181036000830152610cf981610cbd565b9050919050565b7f4e487b7100000000000000000000000000000000000000000000000000000000600052601160045260246000fd5b6000610d3a82610af7565b9150610d4583610af7565b925082821015610d5857610d57610d00565b5b828203905092915050565b6000610d6e82610af7565b9150610d7983610af7565b9250827fffffffffffffffffffffffffffffffffffffffffffffffffffffffffffffffff03821115610dae57610dad610d00565b5b82820190509291505056fea2646970667358221220f6e0cf3c5437d46286347bd35db5f4b0f4230a8ec22bb4bbec212801d8d3843464736f6c634300080b0033",
  "immutableReferences": {},
  "source": "// SPDX-License-Identifier: GPL-3.0\n\npragma solidity >=0.7.0 <0.9.0;\n\n\n/// @title A Token Generator for Campaign\n/// @author Alex Braz\n/// @notice Generates a custom Token for any campaign\n/// @dev v1.0 basic ERC-21 \ncontract Token {\n\n    address owner;\n    uint256 initialSupply;\n    uint256 inContractSupply;\n    string public tokenName;\n    string public tokenSymbol;\n    string public compaignName;\n    string public version = \"1.0\";\n    uint8 decimals = 2;\n    mapping (address => uint256) public balances;\n    mapping (address => mapping (address => uint256)) public allowed;\n    uint256 constant private MAX_UINT256 = 2**256 - 1;\n\n    event Transfer(address indexed from, address indexed to, uint value);\n    event Approval(address indexed sender, address indexed spender, uint value);\n\n    constructor(string memory _tokenName, string memory _tokenSymbol, uint256 _initialSupply ) {\n        tokenName = _tokenName;\n        tokenSymbol = _tokenSymbol;\n        balances[msg.sender] = initialSupply;\n        owner = msg.sender;\n        initialSupply = _initialSupply;\n        inContractSupply = _initialSupply;\n    }\n\n    modifier onlyOwner {\n        require(\n            msg.sender == owner,\n            \"Only owner can call this function.\"\n        );\n        _;\n    }\n\n    function transfer(address _to, uint256 _value) public onlyOwner returns (bool success) {\n        require(balances[msg.sender] >= _value);\n        balances[msg.sender] -= _value;\n        balances[_to] += _value;\n        emit Transfer(msg.sender, _to, _value); //solhint-disable-line indent, no-unused-vars\n        return true;\n    }\n \n    function balanceOf(address _owner) public onlyOwner view returns (uint256 balance) {\n        if (msg.sender != owner) return 0;\n\n        return balances[_owner];\n    }\n\n    function getBalance(address _owner) public view returns (uint256 balance) {\n        return balances[_owner];\n    }\n\n    function myBalance() public view returns (uint256 balance) {\n        return balances[msg.sender];\n    }\n\n    function destroy() public onlyOwner payable{\n        selfdestruct(payable(owner));\n    }\n\n}",
  "sourcePath": "/home/abraz/projetos/hedera-contracts/contracts/Token.sol",
  "compiler": {
    "name": "solc",
    "version": "0.8.11+commit.d7f03943.Emscripten.clang"
  },
  "schemaVersion": "3.4.4",
  "updatedAt": "2022-01-27T21:38:12.792Z",
  "networkType": "ethereum",
  "devdoc": {
    "author": "Alex Braz",
    "details": "v1.0 basic ERC-21 ",
    "kind": "dev",
    "methods": {},
    "title": "A Token Generator for Campaign",
    "version": 1
  },
  "userdoc": {
    "kind": "user",
    "methods": {},
    "notice": "Generates a custom Token for any campaign",
    "version": 1
  }
}